S0260000576F726B2053746174696F6E20436F6E74726F6C73204669726D776172652E7372656388
S113000070240020850100008101000081010000AE
S113001000000000000000000000000000000000DC
S1130020000000000000000000000000810100004A
S113003000000000000000008101000081010000B8
S113004081010000810100008101000081010000A4
S11300508101000081010000810100008101000094
S11300608101000081010000810100008101000084
S11300708101000081010000810100008101000074
S113008081010000810100008101000000000000E6
S113009000000000810100008101000081010000D6
S11300A08101000081010000810100008101000044
S11300B00000000010B5064C2378002B07D1054B37
S11300C0002B02D0044800E000BF0123237010BDC0
S11300D02C040020000000003C050000084B10B573
S11300E0002B03D00749084800E000BF0748036815
S11300F0002B00D110BD064B002BFBD09847F9E72D
S113010000000000300400203C0500003C05000015
S1130110000000000D4A136A08210B4313623831B2
S1130120F8230B4AD1501000B831402243581A42E8
S1130130FCD0084B00221A705A70032199705A811E
S11301401A7801390A431A707047C0460004004007
S113015000180040000C0043C0235B011843074B08
S1130160188102221A761900013A8B791342FCD0C5
S1130170024B988C0005000D7047C046000C0043EC
S1130180FEE7000010B51A4A1A4B9A4211D01A0021
S1130190194B9A420DD2194A03339B1A9B08013317
S11301A09B000022134812498C58845004329A420E
S11301B0FAD1134A134B9A420AD2D34311495B181A
S11301C003218B4304339B18002102C29342FCD1C8
S11301D00D4AFF210D4B8B4393600D4A53687F39C1
S11301E00B4353600B4B98470B4B9847FEE7C046B5
S11301F03C050000000000202C0400200400002026
S11302002C0400206C04002000ED00E0000000003D
S1130210004000417503000051030000034B80229D
S113022092045A60022159229954704700280040D0
S1130230054B80225A600121393A995432315A5C73
S1130240102002435A54704700280040174B802264
S113025012039A6001215322995438315A5C502078
S113026002435A54124AD36919390B43D3612031DA
S1130270E423104AD1501000A431402243581A42BA
S1130280FCD00D4B00221A600221D963FF321A649C
S11302907F3A1A65DA649A645A64084A1A621A68D8
S11302A00A431A6020225A717047C0460028004051
S11302B00004004000180040001400420AC400007A
S11302C010B5034B9847034B9847034B984710BD11
S11302D01D020000310200004D020000024B186AAA
S11302E08001C00F7047C0460028004010B50720A9
S11302F0014B984710BDC0465901000010B5084B8A
S11303009847002804D180229201064B1A6510BD3B
S1130310054B98470009C0B28001024B1865F6E707
S1130320DD02000000140042ED0200000E22074B23
S11303301A758023DB050D3A9A7101329A701A00FE
S11303409379002BFCD062B67047C046000C004085
S113035010B5044B9847044B9847044B9847044CFA
S1130360A047FDE72D03000015010000C1020000B5
S1130370FD02000070B50D4E0D4D0024AD1BAD10F7
S113038005D0A300F35801349847A542F9D100F0F1
S1130390C3F8084E084D0024AD1BAD1005D0A300D2
S11303A0F35801349847A542F9D170BD24050000E3
S11303B024050000240500002C050000034B10B5A3
S11303C0002B02D0024800F005F810BD0000000028
S11303D0E503000010B5010000230022002000F016
S11303E01FF810BD70B5094B094CE41AA41009D0CC
S11303F0084AA518AD00ED182B68013C9847043D48
S1130400002CF9D100F092F870BDC0463805000008
S11304103C050000FFFFFF3F7047C0467047C046E1
S1130420F0B54E464546DE465746E0B5364D83B0F8
S11304300600286898460F009146FFF7EDFF334BFE
S11304401C68A4235B00E058002852D043681F2B8B
S113045013DC5A1C0192002E28D1019A02339B000E
S113046042601F502868FFF7D9FF002003B03CBC4E
S113047090469946A246AB46F0BD254B002B3DD095
S1130480C820400000E000BF002837D0A422002389
S11304905200A15843600160A0504032835004329E
S11304A08350013301930023002ED6D09A00924644
S11304B082444A46882154466250C42252009146DE
S11304C081444A468739994012688B460A439446C8
S11304D04A4661461160842241465200A150022ED0
S11304E0BBD102005C468D32FF3211680C431460AC
S11304F0B3E720004D30FF30E050A7E72868FFF74E
S11305008DFF01204042B1E72804002014050000BB
S11305100000000000000020F8B5C046F8BC08BC8C
S11305209E467047BD030000DD000000F8B5C046DC
S10F0530F8BC08BC9E467047B5000000F3
S113053C00000000EC02002054030020BC03002047
S113054C000000000000000000000000000000009B
S113055C000000000000000000000000000000008B
S113056C000000000000000000000000000000007B
S113057C000000000000000000000000000000006B
S113058C000000000000000000000000000000005B
S113059C000000000000000000000000000000004B
S11305AC000000000000000000000000000000003B
S11305BC000000000000000000000000000000002B
S11305CC000000000000000000000000000000001B
S11305DC000000000000000001000000000000000A
S11305EC0E33CDAB34126DE6ECDE05000B000000CF
S11305FC00000000000000000000000000000000EB
S113060C00000000000000000000000000000000DA
S113061C00000000000000000000000000000000CA
S113062C00000000000000000000000000000000BA
S10F095C0000000000000000480400201F
S9030000FC
