S0260000576F726B2053746174696F6E20436F6E74726F6C73204669726D776172652E7372656388
S1130000502400205D010000590100005901000046
S113001000000000000000000000000000000000DC
S11300200000000000000000000000005901000072
S11300300000000000000000590100005901000008
S11300405901000059010000590100005901000044
S11300505901000059010000590100005901000034
S11300605901000059010000590100005901000024
S11300705901000059010000590100005901000014
S1130080590100005901000099030000000000001C
S1130090000000005901000059010000590100004E
S11300A059010000590100005901000059010000E4
S11300B00000000010B5064C2378002B07D1054B37
S11300C0002B02D0044800E000BF0123237010BDC0
S11300D0280400200000000008060000084B10B5AA
S11300E0002B03D00749084800E000BF0748036815
S11300F0002B00D110BD064B002BFBD09847F9E72D
S1130100000000002C04002008060000080600007F
S1130110000000000D4A136A08210B4313623831B2
S1130120F8230B4AD1501000B831402243581A42E8
S1130130FCD0084B00221A705A7003329A702D3288
S11301405A811A7802210A431A7070470004004049
S113015000180040000C0043FEE7000010B51A4AE6
S11301601A4B9A4211D01A00194B9A420DD2194ACD
S113017003339B1A9B0801339B0000221348124946
S11301808C58845004329A42FAD1134A134B9A423F
S11301900AD2D34311495B1803218B4304339B18C0
S11301A0002102C29342FCD10D4AFF210D4B8B4327
S11301B093600D4A53687F390B4353600B4B984748
S11301C00B4B9847FEE7C0460806000000000020DD
S11301D02804002004000020280400204C040020EF
S11301E000ED00E000000000004000416904000050
S11301F0CD020000034B802252045A60022158228F
S11302009954704700280040054B80225A60012110
S1130210393A995432315A5C102002435A54704787
S113022000280040154B802212039A6001215322BA
S1130230995438315A5C502002435A54104AD369B5
S113024019390B43D3612031E4230E4AD1501000F5
S1130250A431402243581A42FCD00B4B00221A60AE
S11302600221D963FF2018641A65DA649A645A6417
S11302701A680A431A6020225A7170470028004005
S113028000040040001800400014004210B5034B65
S11302909847034B9847034B984710BDF50100005E
S11302A009020000250200000E22074B1A75802364
S11302B0DB050D3A9A7101329A701A009379002B7A
S11302C0FCD062B67047C046000C004070B50A4BC3
S11302D098470A4B98470A4B98470A4B98470A4B4A
S11302E098470024094E0A4D2000B0470134A4B2B7
S11302F06420A847F8E7C046A9020000F9030000FB
S1130300150100008D0200001503000035030000F4
S1130310E5030000064B0C2188229950C0221206E6
S11303209A60802212069A61043998229950704783
S113033000280040F0B5C64600B505000C24144B57
S11303409846144E8027FF050BE004229423F250B4
S113035001200F4B9847B7616D08013CE4B2002CB3
S113036008D00120C0477761EB07EED5042298231B
S1130370F250EDE7074D802636066E610120044CED
S1130380A047AE611420A04704BC9046F0BDC0460F
S1130390E5030000002800400F4B9B7ADB0615D5CF
S11303A00E4B1A6801321A601A790132D2B21A71EC
S11303B01B79002B07D10A4B1B699B0207D58022AE
S11303C09203074B5A611022034B9A7270478022A2
S11303D09203034B9A61F6E7002400424404002090
S11303E000280040034B1B681818024A13689842FF
S11303F0FCD8704744040020164AD16980239B002E
S11304000B43D3614021EC23134AD1501000AC318B
S1130410402243581A42FCD0104BC82292001A6062
S113042001221A7300229A82FA2149009983D983FE
S11304309A821A68F339FF390A431A6010225A72F1
S11304408022D202064B1A6080229203054B9A60E6
S11304507047C046000400400018004000240042D9
S113046000E100E00028004070B50D4E0D4D002461
S1130470AD1BAD1005D0A300F35801349847A54235
S1130480F9D100F0AFF8084E084D0024AD1BAD10B3
S113049005D0A300F35801349847A542F9D170BDA3
S11304A0F0050000F0050000F0050000F80500006C
S11304B0034B10B5002B02D0024800F005F810BD24
S11304C000000000D904000010B501000023002240
S11304D0002000F01BF810BD70B5094B094CE41A5C
S11304E0A41009D0084AA518AD00ED182B68013CEA
S11304F09847043D002CF9D100F07EF870BDC04649
S11305000406000008060000FFFFFF3FF8B5DE46C2
S11305109B46314B45461C68A4234E4657465B0018
S1130520E0B50500E0580E00904600284BD0436823
S11305301F2B0DDC5C1C002D21D102339B00446079
S11305401E5000203CBC90469946A246AB46F8BDDE
S1130550224B002B3CD0C820400000E000BF002804
S113056036D0A42200235200A15843600160A05059
S113057040328350043283500124002DDDD09A0090
S113058091468144424688214F467A50C422520003
S11305909046804442468739994012688A460A4305
S11305A09446424661461160842249465F465200A1
S11305B08F50022DC1D1020055468D32FF32116891
S11305C00D431560B9E720004D30FF30E050AEE731
S11305D001204042B6E7C046E005000000000000EC
S11305E000000020F8B5C046F8BC08BC9E46704721
S11305F0B1040000DD000000F8B5C046F8BC08BC3A
S10B06009E467047B50000009E
S113060800000000EC02002054030020BC0300207A
S113061800000000000000000000000000000000CE
S113062800000000000000000000000000000000BE
S113063800000000000000000000000000000000AE
S1130648000000000000000000000000000000009E
S1130658000000000000000000000000000000008E
S1130668000000000000000000000000000000007E
S1130678000000000000000000000000000000006E
S1130688000000000000000000000000000000005E
S1130698000000000000000000000000000000004E
S11306A8000000000000000001000000000000003D
S11306B80E33CDAB34126DE6ECDE05000B00000002
S11306C8000000000000000000000000000000001E
S11306D8000000000000000000000000000000000E
S11306E800000000000000000000000000000000FE
S11306F800000000000000000000000000000000EE
S9030000FC
